:040000006F10507CB1
:100004000000000000000000900000206C070020A9
:10001400A9BDF9F52408002000000000000000003C
:1000240024080020900000200000000000000000D0
:10003400900000200000000090000020000000005C
:1000440090000020D00C0020DC0C00209000002048
:1000540090000020F01E002090000020000000000E
:1000640090000020900000209000002090000020CC
:100074008A08002090000020A008002090000020A2
:1000840090000020900000209000002090000020AC
:1000940001A04111814601468145114506C6EF0084
:1000A400B050B727004011472383E780B7F700E03B
:1000B400938707D0984B6D9B98CB984B5D9B98CBBF
:1000C4007300501001000100B2404101828001110F
:1000D400814601468145114506CEEF00F04CB72715
:1000E400004011472383E780B717004083C6E70227
:1000F40003C5E7041307800893F6C60F136535009C
:1001040093E61600733607801376860832C0010022
:100114000100930570052380B704130680FA238039
:10012400C704010001002382070223800704024858
:100134007328088001000100733807801378880849
:1001440042C2010001002380B7042380C7040100D8
:1001540001002387D7022387A7042380070492463C
:10016400F3A6068001000100F336078093F68608A3
:1001740036C4010001002380B7042380C7040100B2
:10018400010083C6B70493E60602A385D70423803F
:100194000704A246F3A6068001000100B7F600E0BA
:1001A400938606D0884A1365450088CA884A5D99B3
:1001B40088CA730050100100010073370780137759
:1001C40087083AC6010001002380B7042380C704CE
:1001D4000100010003C7B7041377F70DA385E704F3
:1001E40023800704B247F3A7078001000100F2400F
:1001F400056182803971B7F5070022DC81462A84C3
:100204003010E105194506DE02D423160102EF0081
:10021400B039B717004083C6E70203C5E7041307E4
:10022400800893F6C60F1365350093E616007336FF
:1002340007801376860832C6010001009305700515
:100244002380B704130680FA2380C7040100010049
:1002540023820702238007043248732808800100A0
:100264000100733807801378880842C80100010030
:100274002380B7042380C704010001002387D70229
:100284002387A70423800704C246F3A6068001003F
:100294000100F336078093F6860836CA0100010090
:1002A4002380B7042380C7040100010083D607021A
:1002B40071757D15E98E2390D70223800704D246F9
:1002C400F3A606800100010037F500E0832605D17E
:1002D40093E646002328D5D083D607026575110519
:1002E40093F60660C18EC98EC206C182733507803B
:1002F400137585082ACC010001002380B7042380EC
:10030400C7040100010003C5F70013650504A387B2
:10031400A7002390D70223800704E246F3A60680B1
:10032400010001009166758C1DE87337078013770F
:1003340087083ACE010001002380B7042380C70454
:100344000100010003C7B70413670702A385E7048C
:1003540023800704F247F3A707800100010037F761
:1003640000E0832707D1DD9B2328F7D073005010CA
:100374000100010013078008F337078093F787080B
:100384003ED001000100B71700401305700523801B
:10039400A704930580FA2380B7040100010083D6E3
:1003A400070271767D16F18E2390D702238007040D
:1003B4008256F3A60680010001000DEC7337078016
:1003C400137787083AD2010001002380A704238011
:1003D400B7040100010003C7B7041377F70DA38521
:1003E400E704238007049257F3A707800100010064
:1003F4005145ED2EF250625421618280397152D4FC
:1004040081462A8A01468145114522DC26DA06DE28
:100414004AD84ED637140040EF0010198347E4023F
:100424000347E4049304800893F7C70F1367370066
:1004340093E71700F3B6048093F6860836C60100E6
:1004440001009309700523003405130980FA230081
:100454002405010001002302040223000404B2461F
:10046400F3A6068001000100F3B6048093F6860823
:1004740036C80100010023003405230024050100CF
:1004840001002307F4022307E40423000404C24701
:10049400F3A707800100010013055002D928B7F71C
:1004A40000E0938707D0984B1367470098CB73B746
:1004B4000480137787083ACA010001002300340539
:1004C40023002405010001000347F4001367070417
:1004D400A307E400230004045247732707800100A4
:1004E400010073B70480137787083ACC0100010038
:1004F4002300340523002405010001002167336A29
:10050400EA0023104403230004046247732707808E
:1005140001000100984B5D9B98CB730050100100C3
:1005240001008146014681451145EF00F007F3B40F
:10053400048093F4840826CE0100010023003405CE
:1005440023002405010001008347640493E7170096
:100554002303F40423000404F247F3A707800100F3
:100564000100F2506254D2544259B259225A2161C4
:100574008280011113078008F337078093F78708F7
:100584003EC201000100B7170040930570052380A7
:10059400B704130680FA2380C7040100010083C650
:1005A400B70493F6F60DA385D70423800704924677
:1005B400F3A606800100010093760502D5CEF3363A
:1005C400078093F6860836C4010001002380B7042F
:1005D4002380C70401000100B70614007D89558DEE
:1005E40088C7010001000100010023800704A2461E
:1005F400F3A606800100010073370780137787088C
:100604003AC6010001002380B7042380C704010017
:100614000100010001003727004093061005A303E1
:10062400D78023800704B247F3A7078001000100A5
:1006340093078008F3B7078093F787083ECE01003D
:100644000100B7170040130770052380E704130760
:1006540080FA2380E7040100010003C7B70413678D
:100664000708A385E70423800704F247F3A707805C
:10067400010001000561828093760504BDC6F3364E
:10068400078093F6860836C8010001002380B7046A
:100694002380C70401000100B706140093860604F2
:1006A4007D89558D88C70100010001000100238068
:1006B4000704C246F3A606800100010073370780D1
:1006C400137787083ACA010001002380B704238006
:1006D400C704010001003727004093062005A30347
:1006E400D78023800704D24781B7733707801377F5
:1006F40087083ACC010001002380B7042380C70493
:100704000100010098471367070C98C7238007046A
:10071400E24719BF0111814601468145114506CEC4
:10072400612593078008F3B7078093F787083EC6CF
:1007340001000100B7170040130770052380E70488
:10074400130780FA2380E7040100010003C767044C
:10075400136717002383E70423800704B247F3A732
:10076400078001000100F240056182804111814649
:100774000146814511450D2D13078008F337078085
:1007840093F787083EC401000100B7170040130621
:1007940070052380C704930680FA2380D7040100E0
:1007A4000100FD552396B70223800704A245F3A553
:1007B40005800100010073370780137787083AC664
:1007C400010001002380C7042380D7040100010035
:1007D40003C76704136717002383E7042380070410
:1007E400B247F3A707800100010001A0BD4733050C
:1007F400F50201007D1575FD8280411122C426C2D7
:1008040006C6AA84014463179400B2402244924469
:100814004101828005041305803E4204C13F4180AA
:10082400DDB700009305000273A0458082457390F4
:10083400153492402242B2424243D2436244F244CB
:10084400025592552256B2564257D2576258F25820
:1008540006499649264AB64A464BD64B664CF64C50
:10086400065D965D265EB65E465FD65F09617300DF
:1008740020304111B7170040985F3AC6945F324761
:10088400E39CE6FE324541018280B717004013071E
:1008940000032388E702854723ACF18A73002030E4
:1008A400411122C626C44AC2972000E0E78040F2E4
:1008B400C167E98F2A8493740540638F0726937771
:1008C400150099C703C5918C972000E0E78060D696
:1008D400B70704003377F4006309071093876708A8
:1008E400E18F95CB83C7618C03C7518C9386618C50
:1008F40063F2E70A03C706009307170093F7F70F9D
:100904002380F6009387819EBA9703C5070097203A
:1009140000E0E78000D29DC03705001013050540B4
:10092400972000E0E78020EC8D472380F18C05457B
:100934002385018C972000E0E78080C99377041019
:1009440099CF13050010972000E0E780C0E9054522
:10095400972000E0E780C0C795472380F18C937708
:10096400042091CB13050020972000E0E780A0E746
:1009740091472380F18C056513050580B377A400A6
:1009840063820722972000E0E780E0E5994723800F
:10099400F18C09AC83C7818C89CB05452385018CF7
:1009A400972000E0E780C0C2BDB7854781451305A5
:1009B4000040A383F18C972000E0E780A0C5814527
:1009C40013050020972000E0E780C0C4814513058B
:1009D4000010972000E0E780E0C30545972000E081
:1009E400E780E0BC2385018C3DB79377240089CB55
:1009F40083C7518CE1C30545972000E0E78060BFC1
:100A0400937704049DCB03C9618C93071900238356
:100A1400F18C972000E0E78060C29387819ECA979B
:100A24002380A70003C7518C83C7618C63FDE7084B
:100A34000545972000E0E780C0BBE38104F037055B
:100A4400001013050540972000E0E780C0D983C457
:100A5400618C938714002383F18C972000E0E78056
:100A6400E0BD9387819EA6972380A70083C7818CCE
:100A7400E39F07EA8547814513050040A383F18C72
:100A8400972000E0E78000B98145130500209720F6
:100A940000E0E78020B8814513050010972000E0AE
:100AA400E78040B70545972000E0E78040B0238504
:100AB400018C69B50145972000E0E78080B3854744
:100AC400A380F18C35BF0145972000E0E78060B238
:100AD4009387118C03C7070021CFA380018C83C7A0
:100AE400818C89CB0545972000E0E78060AE2385A3
:100AF400018CA1B78547814513050040A383F18C80
:100B0400972000E0E78000B181451305002097207D
:100B140000E0E78020B0814513050010972000E035
:100B2400E78040AF0545972000E0E78040A8C1B7C3
:100B340005472380E70011B79377250095CBB707C6
:100B4400040093870708E98F1387A18CDDC39147BD
:100B54002300F7002382018CA381018C83A7C18B1E
:100B640081CB9C4391C79385318C1385819C82975B
:100B7400B7070400E18FE1C70545972000E0E7804F
:100B840040A7B5CC3705001013050540972000E0B9
:100B9400E78060C50545972000E0E78080A5014413
:100BA4002385018C8567E18F89CB0565972000E05B
:100BB400E78060C39D472380F18C9167E18F89CBE7
:100BC4001165972000E0E78000C2A1472380F18CE3
:100BD400A1677D8C09C82165972000E0E780A0C04B
:100BE400A5472380F18C3244A24412494101730089
:100BF40020308D472300F7002381018C95BF937724
:100C04004408E38D07D283C7418C03C7318C938694
:100C1400418C1305F00F63FFE70003C70600930739
:100C2400170093F7F70F2380F6009387819CBA97F8
:100C340003C50700972000E0E780A09F01B39377E6
:100C44000404A1C383C6218CFD471387218C01456D
:100C540063E5D7028347070013F9F70F850793F776
:100C6400F70F2300F700972000E0E780209D93878B
:100C7400819ACA972380A7000545972000E0E78062
:100C84004097937704018DC73757004083570780F7
:100C940093E717002310F78083A7C18B81CBDC4334
:100CA40091C783C5218C1385819A82972381018CF6
:100CB400E38604C83705001013050540972000E0BB
:100CC400E78060B20545972000E0E7808092BDB1DF
:100CD400973000E0E780600773002030D53F730051
:100CE4002030411106C6EF00E077F5BF23030480EE
:100CF40015472303E48001002302A4808280830734
:100D04006480E3CE07FE230304808280830764802B
:100D1400E3CE07FE03454480828083076480E3CEEC
:100D240007FE2302A4808280411126C44AC24EC019
:100D340006C61377F50BAD47AA892E899544630639
:100D4400F70019456537653F8D444E854537FD5994
:100D5400FD1463983401B240A2441249824941010E
:100D64008280135509011375F50F453F2209CDB74C
:100D7400011126CC06CEB704080051371545BD37FE
:100D8400713769372AC6A53F32459377150089EB39
:100D9400136515001375F50FF240E2440561828076
:100DA400FD14E9FC0145CDBF397126DC4ADA4ED881
:100DB40052D656D45AD25ED006DE62CE66CCB7E79F
:100DC40000E07D5783AA070022C603AA470023A098
:100DD400E71823A2E718B71700401307700523800C
:100DE400E704130780FA2380E70483C74704930BBF
:100DF40075FFB684E20793FBFB0F8546AA892E8B09
:100E0400328937240040E187015763FA7601630889
:100E1400D5008946130700026313D5000157D98F03
:100E240093F7F70FB71C00402382FC0411472303F8
:100E3400E4801305F00F5D3D094CD135636D7C11E1
:100E4400B7050700DA9537870700795563F2E5049B
:100E5400B3879500636EF702370B0800A94733EB9D
:100E640065016399F90689E48144513D26850DA005
:100E7400DA850945553D05090345F9FFFD14050BC0
:100E8400693D81C49377FB0FFDF7DD3569FD7D5521
:100E9400B7170040130770052380E704130780FA8F
:100EA4002380E70403C74704418B2382E704F250FD
:100EB400B7E700E023A0571123A24711E2543244BC
:100EC4005259C259325AA25A125B825B724CE24C9A
:100ED40021618280A5476395F90685691309F00F9E
:100EE400B3069900B3742B01B6941349F9FFB37494
:100EF4009900856B33796901416B9387F9FFB3F7E7
:100F0400270199E363FC340193D94900C147E3E61F
:100F140037FF99BF0569C1697D19D9B71305800DDC
:100F240063886901130500026384790113051008BD
:100F3400CA85DD3B353D21DD4E99B3843441D9B7B3
:100F4400DA852D45D533CA94E30099F205097D3B32
:100F5400A30FA9FED5BF9387F9FF93F7F70F63613A
:100F6400FC0C83C71C0413073008631FF7043707FE
:100F74000800636BEB04B3079B00B706100063F52E
:100F8400D704334BEB0089476393F9068980D5492D
:100F9400E38C04ECDA850945413B11090327C9FFB9
:100FA40091472320E48003076480E34E07FE230374
:100FB4003481FD17EDFBFD14110B81C49377FB0FF6
:100FC400E9FF7D3371F5E1B5B717004003C7570456
:100FD400B70708001377070219E3B78707007955A5
:100FE400E378FBEA33079B00E3FFE7F855B5854751
:100FF400E382F9F2DA852D45053B9389F4FFE38515
:1010040004E6293393F7390091EB83260480032700
:10101400090093074900E39AE6E43E89CE84F1BFD0
:10102400B5476396F9001305900BC93135BDB14737
:101034001305B00AE38BF9FE99476391F904B705E8
:101044000800B365BB002D45C53181448D4BA149D2
:10105400753963967401832704802320F90085047D
:10106400E39834FF8327048013172B01635507008B
:101074002312F900D5BB2322F900FDB39D476399E0
:10108400F90281451305B0044531BD44232009000C
:1010940023220900FD599D3993F77400CA9703C7A9
:1010A4000700FD14398D2380A700E39634FF6DBB40
:1010B400A1476392F9046D398144630D0B008D4798
:1010C4009304C0036308FB009304000563048B01CD
:1010D400930440041375C507E30895D819453931BD
:1010E40039390545213126850D3909453D314931C7
:1010F400E31C05D669BB91476399F90013056006A3
:10110400F536F53E130590090DB7E38F09D4F15474
:10111400A9BBB7C7004003A7C72023A607200F1009
:10112400000001C599C1814711E6B7C7004023A655
:10113400E7208280B386F50003C80600B306F500F5
:10114400850723800601E317F6FEC5B737C70040BD
:101154008327C720232607200F10000019C191C13F
:1011640011E637C700402326F7208280910503A7A4
:10117400C5FF11057D16232EE5FEDDB737C70040F8
:101184008327C720232607200F10000001C533073B
:10119400C50011E637C700402326F72082800505E5
:1011A400A30FB5FEE31DE5FEF5B7B7C7004083A660
:1011B400C72023A607200F10000081473307F5003E
:1011C4000307070019E737C700402326D7203E85C9
:1011D40082808507E5B7011126CA4AC8B7C700400F
:1011E40006CE22CC83A4C7202A892E8623A60720D4
:1011F4000F100000131506019305F004418132C657
:10120400EF0090222A8401C53246CA851937228507
:10121400F2406244B7C7004023A697204249D24413
:1012240005618280B7C7004003A7C72023A6072013
:101234000F10000001C599C1814711EAB7C70040EA
:1012440023A6E720054582808507E309F6FE3308D7
:10125400F500B386F5000348080083C60600E305DD
:10126400D8FEB7C7004023A6E72001458280B7C750
:10127400004003A7C72023A607200F1000009307F0
:10128400F6FFBE952A966317C500B7C7004023A68C
:10129400E7208280FD1583C715000505A30FF5FE21
:1012A400DDB737C700408327C720232607200F1048
:1012B400000001C53307C50019E637C700402326DF
:1012C400F7200145828005058346F5FFE397B6FEC6
:1012D400E31BE5FE37C700402326F720054582803F
:1012E4007971973700009387E78C22D4804306D620
:1012F40026D24AD04ECE52CC56CA5AC85EC679C0FF
:10130400B7C4C901014B973900009389298A938492
:10131400F437173A0000130A2A8A973A0000938A8E
:10132400AA84173900001309A98D8357240095E373
:101334005C44631D0B0017370000232DF786832BB5
:10134400C4002285EF00301D5E84B9A82326FB006B
:10135400FDB783A7090082971C443307F5406376E1
:10136400F500032749001D8F2A9763E2E4089737A5
:10137400000023A30780835524000345040097300D
:1013840000E0E78060245C405844A1CB0C44032671
:101394004900AE97BE8663E4B70063E4C700B38632
:1013A400C74014C4228B3A8449F0972700009387DE
:1013B400A77B9C4B05476372F706FD1717270000B0
:1013C400232CF77AB250225492540259F249624AB9
:1013D400D24A424BB24B4561828063170B00972778
:1013E400000023A9E77CA1BF2326EB0089BF0327C4
:1013F4004A0209CF63EFA7003385A74083A70A01F8
:101404006376F5009727000023A8A776228B404433
:1014140061BF03274900BA97C5B79727000023ADDA
:1014240007744DB7972700009387077D9C4385C3B6
:10143400411106C682979727000083C7077789E77B
:101444009727000023AA077AB24041018280972798
:10145400000083C7877591E79727000023AE0778BC
:1014640082808280411122C41724000013048472F4
:101474001C4006C626C24AC091C78297972700001F
:1014840023AA07705C4091C382971C40639C071C8D
:10149400173700000347B7909547973400009384AB
:1014A400A48F6301F71C9727000083C727768DE379
:1014B40083C75400858B89CF83C774001947631C85
:1014C400F70E97370000A38B078C99265C4482970C
:1014D4001C4491C38297172900001309696D0327DF
:1014E400090017260000034636689727000083C7C3
:1014F400A76793961700BA9683D60600E9CA97277A
:10150400000083C7676663EEC70C97270000238D2E
:1015140007641C406398071483C77400154763036A
:10152400F7149737000083C7B78791CF83C7740038
:1015340093F7F70F89EB97370000A383078697107B
:1015440001E0E780006597270000938727669C43A6
:10155400638A0710972700009387876ADC4317275D
:101564000000232BF760AD3B972700009387C764E7
:10157400DC53EDCB83C7740015476365F70E9737CB
:10158400000083C72786918BF1EF9727000083C75C
:10159400C761E9EB032609009726000083C6D65CE1
:1015A40063C8D70C2244B240924402494101173324
:1015B40000E06700235883C774001D47E31AF7F05F
:1015C40097270000A38C077CA1241C4809B7850732
:1015D40093F7F70F972600002388F658E3E7C7F040
:1015E40039BF86073E9783550700231007009727C6
:1015F4000000239B075A97270000938767599C4351
:10160400172500000345455613172500BA979C4338
:1016140082979727000083D727591727000003478D
:10162400A75493C7F7FF7D8D93171700032709006D
:101634003E97835707005D8D2310A700972700006E
:1016440083C7875291C7850717270000230EF750D9
:1016540017270000034747519727000083C7D75037
:10166400E375F7EAB2402244924402494101828080
:10167400139717003297035707006DF785070DB7C7
:1016840037C700408326C720B707FCFFFD17F58F37
:101694002326F7200F100000972700009387C74CDC
:1016A400C84F832787262326D7206A0593C7F7FFC9
:1016B40099835D8D82800111972700009387077EAF
:1016C40022CC03A4870B26CA06CE2AC42EC6854480
:1016D40019E40145F2406244D244056182808347A3
:1016E400910003471400858B6304F7000044CDB7D1
:1016F40019469305A100130524002D36E31895FE21
:101704000545C9BF17270000130747681443411153
:1017140022C49C5E4AC006C6998326C2858B3A843D
:101724001729000013094966D1CB930700069CDEF4
:10173400172700000347A7669307000897240000B3
:1017440093848465631BF700832709009C4393F704
:101754000704172700002304F76483C7040093F7E2
:1017640007049DC397270000938747449C438297AF
:101774009727000023AAA76283C7040093F7F70BF7
:1017840017270000230AF76083C7440093F7070470
:1017940095E7854717270000A302F7609727000005
:1017A400938747619C433707020098C7130700FCDF
:1017B400972600002384E65ED844F8D318401C5FC3
:1017C4009183858B8DC31C5F93E707011CDF9727EB
:1017D40000009387275E9C4323A2070685471727AB
:1017E4000000230DF75A83270900D8430583058B8E
:1017F40019C7D843759BD8C3D843799BD8C3B24083
:1018040022449244024941018280ED3D730020301C
:10181400972700009387075A9443972700009387DC
:10182400A75703C70700058B11CB97270000238711
:10183400075697270000A3830756828003C7170023
:10184400058B65F7F85271FF83C75700DDB717277B
:1018540000001307A75303280700832788039583F1
:10186400858BADEF11C683270803BD832300F600E3
:101874009DC61C43985B4607935767016356070050
:1018840093E707C0C207C18303970600C207C18755
:1018940009C7BA970947B3C7E7022390F6008DCD6D
:1018A4008345150095C99727000083C7474F93F7D1
:1018B400070413879500894585C33A958347050036
:1018C4000547994593F6F7066398E600E207E18732
:1018D400814563D30700B9452E8582808545EDBFD8
:1018E400411122C406C6172400001304A44C184056
:1018F40049E9AE877453FDFE3E85B2859727000003
:10190400238D0748971001E0E780800F9727000098
:101914009387C7479C43B70680009843558F98C365
:10192400D857719BD8D797270000A38907469727D4
:101934000000A38307461C40094798C3B7F700E09B
:1019440003A707D16D9B23A8E7D003A707D15D9B0D
:1019540023A8E7D073005010144017270000130782
:10196400A74383472700858B89EB83473700858B03
:10197400C1C39727000023830742B2402244410198
:1019840082808D476310F5029727000093870740F4
:101994009C43B70680009843558F98C3D857719BD2
:1019A400D8D75DBF8547E319F5FA54478177FD170A
:1019B400F58F5CC70F1000001840B70702001CC762
:1019C400930700F817260000230AF63C9727000027
:1019D4009387C73B9C439C439D83858B6397A70058
:1019E400930760197CD354C785BF9307E01BDDBF01
:1019F400FC52A5FB59B7411122C41724000013045B
:101A0400643B1C4006C6D8479316D70063D606022B
:101A140098479316D70063D106027D57B8D7172786
:101A2400000013076714584F05079726000023ABDF
:101A3400E6143707040098C798470D83058B1DC328
:101A44001727000003476735136717009726000020
:101A54002385E634130700F8972600002380E63434
:101A6400214798C79847058B09CF172700000347DC
:101A7400B7321367170097260000A38FE630054797
:101A840098C798470983058B09E798470583058B11
:101A940031C317270000A303073098479726000097
:101AA4009386862F0983058B6302071003C70600FC
:101AB40013671700972600002380E62E114798C766
:101AC400172700001307872C1443D856719B1367FC
:101AD4001700D8D698479316F70063D606029726C0
:101AE400000083C6E642C18A172700001307073B9C
:101AF400E1CA0347470713670702972600002389B3
:101B0400E640416798C798479316E70063D20602F8
:101B14001727000003478728620761876357070078
:101B2400054797260000238BE6263707020098C74F
:101B340098479316C70063D706029726000083C60A
:101B4400363D858A1727000013074735C1CA034766
:101B540057071367270097260000A38BE63A370739
:101B6400080098C798479316B70063DD0602370745
:101B7400100098C79727000083C7470985C7172710
:101B840000000347D7219547630EF700972700000D
:101B94009387071F9C4391C382971840B7071F0080
:101BA400BD075CC7B24022444101828003C73600AE
:101BB4001367170097260000A381E61E094701B7A3
:101BC400834647070946BD8A6388C600034747071B
:101BD4008D463D8BE317D7F2114705B78346570768
:101BE400918AB5DE0347570713678700ADB7972778
:101BF40000009387271C98438967938707F47CD355
:101C040097270000938747209C4383A607091396D0
:101C140056006358060083A60709139666006344BA
:101C240006007453FDF28280411122C4B7C70040FC
:101C340006C603A4C72023A607200F10000011C165
:101C440099E5B7C7004023A6872001457DA89307DF
:101C54003500C207C183F19BC207C1831307400348
:101C64006369F702172700001307C72208431727E1
:101C740000001307A72114436392A602172700004C
:101C8400130787F3185B55DFC207DD8D05450297FF
:101C94004DBF172700001307A71FC9BF03576500CF
:101CA4002DEB035745006366F706B306F74021465C
:101CB400637CD60203280500938687001D8FAA96AD
:101CC400611717260000035686EA2392E60023A034
:101CD40006012393060014C12312F500130786FF9F
:101CE400972600002395E6E82313B5009725000006
:101CF40083D5E5E7B387F540172700002319F7E6F6
:101D0400B7C7004023A687202105B24022444101E1
:101D14008280084195B7B7C7004003A8C72023A60F
:101D240007200F10000001E523A6072182809727D2
:101D340000009387271603AE0700972700009387B8
:101D4400E71403A307008146F28763F0670C83A8B6
:101D54000700636FF50A63EDA80A138787006366BB
:101D6400E50A03D66700216705076317E60003C782
:101D7400819405072384E194972500009385C5DEAB
:101D840003D6470003D76500239307003297420721
:101D9400418317250000231CE5DC638AC70317254C
:101DA40000001305E50E08416303F50203D5660040
:101DB40019ED83D7460023A0160121073E9621067C
:101DC4002392C600972700002393E7DAB687984347
:101DD400630D6702972600009386860B9442630680
:101DE400D7028356670095E283D64700035647001F
:101DF4001843A106B2962392D70098C383D76500EF
:101E0400A107172700002314F7D6B7C7004029BF3E
:101E1400BE86C6871DBF0111972700009387070858
:101E240022CC03A4070C26CA4AC84EC606CEAA84EE
:101E340013092500854915C083C7140003473400DE
:101E4400858B6304F700405CFDB719469305440095
:101E54004A85EFF02FBDE31835FF2285F240624436
:101E6400D2444249B249056182804111972700005A
:101E74009387C70222C403A4070C26C24AC006C61D
:101E840093042500054901E82285B2402244924486
:101E9400024941018280A6851305A40297C001E08E
:101EA400E78060CFE30225FF405CF1BF4111972733
:101EB40000009387A7FE22C403A4070C26C24AC0CD
:101EC40006C693042500054901E82285B240224450
:101ED4009244024941018280A6851305A40197C05A
:101EE40001E0E78040CBE30225FF405CF1BF000046
:101EF400197106C212C416C61AC81ECA22CC26CE2E
:101F04002AD02ED232D436D63AD83EDA42DC46DE55
:101F1400CAC0CEC2D2C4D6C6DAC8DECAE2CCE6CEC5
:101F2400EAD0EED2F2D4F6D6FAD8FEDA9385018B53
:101F34008841E700050092402242B2424243D24324
:101F44006244F244025592552256B2564257D25731
:101F54006258F25806499649264AB64A464BD64B29
:101F6400664CF64C065D965D265EB65E465FD65FB1
:101F74000961730020300000EFF0CFCA7300000045
:101F84000000000097220000938222C20383020013
:101F940023800200630F0300F32510342EC097053D
:101FA40000009385A5FD73901534EFF0DFA4730052
:101FB400203086DCEFF03FA4E65082800000000071
:101FC40097110020938141931751002013014183FD
:101FD4001305400097E5FF1F93858502170600202F
:101FE400130606FE63FAC5008322050023A05500EC
:101FF40011059105E3EAC5FE170502001305052A3C
:10200400970500209385C5FB1386C18A63FAC50032
:102014008322050023A0550011059105E3EAC5FEBE
:102024001385018B97250020938585F96377B50087
:10203400232005001105E36DB5FEFD42739002BC3B
:102044008D4273904280930280087390023097E22D
:10205400FF1F9382E2FA93E2320073905230972288
:102064000000938202FD73901234730020302A839F
:1020740009CA83830500230073007D1605038505C3
:102084006DFA8280B717004083C5870503C897059A
:1020940003C7970593F5F50F1378F80F13678700B7
:1020A400A38CE70403C797051377B70FA38CE70442
:1020B40003C7A70513671700238DE70437170040EC
:1020C4008347A705858BEDFF0565C146371700409B
:1020D4009308F5FF0346A70513661600230DC704EE
:1020E4000346A705058A6DFE0356C705FD16C206FD
:1020F4001346F6FF33761601C182B297E1FEA107BB
:102104009183130505801D8DA30C07054205230C3F
:10211400B70441858280B717004003C777051A05C5
:102124001377E70FA38BE70413974500598D1365C5
:1021340035001375F50FA38CA70403C7A705C18940
:1021440091C513672700238DE70482801377D70F87
:10215400DDBFB717004003C777051377E70FA38BDD
:10216400E7043947238CE7040D47A38CE70403C72E
:10217400A7051377D70F238DE70482803717004014
:102184008347A70593E71700230DF7048347A705A3
:10219400858BEDFF0355C705520551818280B71722
:1021A400004003C7E7040D8941111377C70F498F16
:1021B40093068008F3B6068093F6860836C60100B7
:1021C4000100930670052380D704930680FA2380C8
:1021D400D704010001002387E70423800704B247E2
:1021E400F3A70780010001004101828041112A8385
:1021F4000148930E407E130F0019930F4006931865
:10220400030193D8080163EF1E011303001933730C
:1022140065028542FD4363F0B20A8D4F214F930E50
:10222400400689A87D13336EE3039308E016630E1A
:102234000E00336EF3039308D01663080E009378F0
:10224400330093B818009388D816C29813980801DD
:10225400135808016DB793F81500138EF5FF6371D9
:10226400BF04F908C2981398080193150E01135876
:102274000801C181E391F5FF8545630B0300B37841
:10228400D5038145638608009375350093B5150021
:10229400F105C29513980501135808018945D9BF62
:1022A400B3881341C2981398080193150E0113586B
:1022B4000801C1818DB77D16329879463307C7026C
:1022C40013D61700BE074208135808013297614617
:1022D400B3F6C60213068070B386C6023697A166AB
:1022E400F58F4207D98FB716004003C7F60213775C
:1022F4000708A303E1000346710003C7F60213773E
:102304000708E314E6FE03477100B71600405DCFEB
:102314001307800873370780137787083AC40100CE
:10232400010037170040930670052300D704930675
:1023340080FA2300D70401000100232A07038346FF
:10234400170393E60608A308D702230007042247CD
:1023540073270780010001001166371700407D16BE
:10236400545B4C5FAD8EF18EE5FE93068008F3B6A8
:10237400068093F6860836C60100010093067005B0
:102384002300D704930680FA2300D7040100010038
:102394005CDB8347170393E70704A308F7022300D2
:1023A4000704B247F3A707800100010041018280BE
:1023B40003C7F60213770708A303E100034671007D
:1023C40003C7F60213770708E314E6FE0347710018
:1023D40065D33DBF4111B7170040985F3AC6945F7B
:1023E4003247E39CE6FE324541018280914763EA2D
:1023F400B70897F701009387A7538A05BE959841BC
:102404003E97B71700409387470B028794431345C1
:10241400F5FF37170040E98E94C39306070B9C42DF
:10242400E98F9CC29307070A9843798D88C38280F9
:1024340090439346F5FF37170040758E90C31306FB
:10244400070B1C42C98F1CC29307070A9843F98ED5
:1024540094C38280944337170040C98E94C3930673
:10246400070B9C421345F5FF65BF94431347F5FFE3
:10247400758F98C3B71700409387070A9843498F0D
:1024840098C382809843498FEDB7914763EAB708B0
:1024940097F701009387074B8A05BE9598413E97AD
:1024A400B71700409387470D028794431345F5FF00
:1024B40037170040E98E94C39306070D9C42E98FB9
:1024C4009CC29307070C9843798D88C382809043FC
:1024D4009346F5FF37170040758E90C31306070D1A
:1024E4001C42C98F1CC29307070C9843F98E94C3EE
:1024F4008280944337170040C98E94C39306070D16
:102504009C421345F5FF65BF94431347F5FF758F50
:1025140098C3B71700409387070C9843498F98C313
:1025240082809843498FEDB79357E50093F70730BE
:10253400C98FC2070947C183638BE5046362B7028D
:1025440013C6F7FF9DE93717004083566709F18EDC
:10255400231BD7081307C70C1443C98E14C321A027
:102564000D47638CE50237170040231FF708835695
:102574002709D58F2319F70882803717004083561F
:102584006709F18E231BD7081307870CF1B7371798
:10259400004083566709DD8E65BF371700408356B8
:1025A4006709DD8EC5B7375700408357078011C5CB
:1025B40093E707102310F7808280C207C18393F743
:1025C400F7EFC207C183FDB7375700408357078031
:1025D40011C593E707202310F7808280C207C183C7
:1025E40093F7F7DFC207C183FDB73757004083571E
:1025F400078011C593E707402310F7808280C20744
:10260400C18393F7F7BFC207C183FDB737570040B3
:10261400835747804205418189C5C98F2312F780BA
:1026240082801345F5FFE98FD5BFB7570040239843
:10263400A7808280B757004003D507811375F50F33
:102644008280375700408357078011C5A166D58F14
:102654002310F7808280C607C583DDBF011126CA17
:10266400B754004052C43E8A83D704804EC6BA8908
:102674002167D98F06CE22CC4AC856C25AC02390AD
:10268400F4802A8901452E84328BB68A5D3FB929AC
:1026940037480F00130808243358050383D74480B0
:1026A400C207C18393F707FCC207C1832392F48056
:1026B40083D74480B3E70701C207C1832392F48020
:1026C40083D70480C207C183F99BC207C1832390C7
:1026D400F480E1679387076A63E4870A0604335446
:1026E400850285671387C7FF114642044180618FC5
:1026F40001C7FD173376F40005089307F00363F46C
:1027040007011308F0034208B757004013580801A3
:1027140023900783B7550040239EC58083D7058047
:10272400F240624493E717002390F58083D7058035
:10273400D244024BC207C18393F757BFC207C18378
:102744002390F58003D50580336555013365250154
:10275400420541812390A58083D7858023940580F9
:1027640083D685804249924AB3E7460133E737016D
:10277400420741832394E580B249224A056182805D
:10278400631A0B028D45B305B402B355B502D205E5
:10279400D1812E8691E1054642064182A1675D8E74
:1027A4009307C0123308F8029307803E3358F802A7
:1027B400050891BFE5473304F40291673356850257
:1027C400520651825D8ED9BFB757004003D7478167
:1027D40003D587814205598D2205218182801345C5
:1027E400F5FF42054181B7570040239AA7808280B4
:1027F4009D4763E3A70217F701001307E7150A05CE
:102804003A951C41BA97375700408287834727007F
:1028140093F7070F2301F70082808347270093F77C
:10282400070F93E71700FDB78347270093F7070FB8
:1028340093E74700C5B78347270093F7070F93E74C
:102844005700C9BF8347270093F7070F93E7870013
:10285400D1B78347270093F7070F93E797005DBF2E
:102864008347270093F7070F93E7C70065B78347AC
:10287400270093F7070F93E7D70069BF3757004046
:1028840089EA834707001345F5FFE98F2300F70022
:1028940082808347170015CAC98FA300F7003757F2
:1028A4000040814711072146B356F540858A89C601
:1028B400B386E7002380B6008507E397C7FE375742
:1028C400004083470700C98FD1B79346F5FFF58FC2
:1028D400E9B7797122D43714004026D24AD003597B
:1028E40024028354040206D64209C2044ECE52CCBA
:1028F40056CA13590901C1802DE11379F9F793F4EC
:10290400F49F4209C20413590901C1809307800846
:10291400F3B7078093F787083EC4010001009307CB
:1029240070052300F404930780FA2300F4040100E3
:102934000100231124032310940223000404A2475A
:10294400F3A7078001000100B250225492540259A7
:10295400F249624AD24A45618280B7F5070081464E
:102964003000B105194597E0FF1FE780E043224797
:102974008967F98FF1FB1369090893E4044093090B
:102984008008F3B7098093F787083EC0010001006F
:10299400930A700523005405130A80FA23004405A2
:1029A40001000100231124032310940223000404D2
:1029B4008247F3A7078001000100294597E0FF1F24
:1029C400E780C0E2F3B9098093F989084EC2010097
:1029D400010023005405230044050100010083572E
:1029E400040293E707202310F4022300040492470F
:1029F40081BF411131E593078008F3B7078093F74E
:102A040087083EC001000100B71700401307700596
:102A14002380E704130780FA2380E7040100010000
:102A240003C7E70093C5F5FF6D8F2387E700238075
:102A340007048247F3A70780010001004101828057
:102A440013078008F337078093F787083EC2010015
:102A54000100B7170040130870052380070513050C
:102A640080FA2380A7040100010083C6E700CD8E0D
:102A740093E606042387D700238007049246F3A62F
:102A8400068001000100F336078093F6860836C4F9
:102A940001000100238007052380A7040100010031
:102AA40083C6F70093F6C60FA387D70023800704D5
:102AB400A246F3A60680010001007337078013774E
:102AC40087083AC601000100238007052380A70474
:102AD4000100010003C7F7007D163336C000518F93
:102AE400A387E70023800704B247A9B7B7170040BC
:102AF40098479317070113770704C18309EBFD8BEC
:102B04003755E801130505803345F502828013F734
:102B1400070C930600046316D700FD8B37459C1CF5
:102B2400D5B72165130505D0828037E700E01C4343
:102B34005443A183E206D58F1CC1FD572320F71807
:102B44002322F718828013178500B7E700E023A03B
:102B5400E710618123A2A7108280B7F700E08847BD
:102B6400CC4782803285814737370040A14663C312
:102B7400A70082800346B740E30ED6FE3386F500F5
:102B84000346060085072304C740D5B7411122C474
:102B940006C62A84A13F2947B307E502B2408D83C4
:102BA400B3D7870222449507B3D7E70237370040EB
:102BB400C207C1832316F740410182807165411128
:102BC4001305052006C6D937B7370040130770F838
:102BD4002381E7400D47A381E74013070004A38046
:102BE400E74005472387E740B24041018280411115
:102BF4009397050122C406C626C2C1872E8463DECC
:102C04000700EF10C05B19C1EF1000502165218D42
:102C1400B240224492444101828093F7150013C5C7
:102C24001500FDF7916433F595007DD117F501008A
:102C3400130585D4EFB0713C13060064916503C598
:102C4400418BEF10F02E258C131504014181C9B777
:102C54001D71494697F50100938545D217F501008A
:102C64001305851286CEA2CC97E0FF1FE780805B18
:102C740001E917F501001305A5D1EFB0113801A042
:102C840037F700E0795610CBFD5654CBB7E700E098
:102C9400056423A087109306F00214C323A08718A9
:102CA4000100010017F7FF1F1307C72D23A8E18AAE
:102CB4004157A38AE7401306C0038145480897E0BB
:102CC400FF1FE780A04B97F7FF1F9387A7643ECAB7
:102CD400896793870780231CF100ED472312F102D3
:102CE4009547A301F10285472303F102930754D1C9
:102CF4002314F102B7F5070097070000938727E62E
:102D04003EDA814697070000938707177000E105B4
:102D140019453EDC97E0FF1FE7800009B2473ED625
:102D2400835701012318F102D24789C783578101D0
:102D340063F3870001A04808EF20C00DAA8501C9EC
:102D440017F50100130505C6EFB0F12801A0F64000
:102D5400664425618280411117050000130565E969
:102D640006C6EF206007238AA18AB120B240410140
:102D740045A2411193078008F3B7078093F78708AA
:102D84003EC601000100B7170040130770052380F9
:102D9400E704130780FA2380E70401000100C8DB7D
:102DA40023800704B247F3A707800100010023AC86
:102DB400018A41018280797106D613078008F337AE
:102DC400078093F787083EC401000100B71700404D
:102DD400930570052380B704130680FA2380C70483
:102DE4000100010083C6F70293F6D60FA387D7022A
:102DF40023800704A246F3A606800100010073376E
:102E04000780137787083AC6010001002380B704BE
:102E14002380C7040100010003C7F70213675700AA
:102E2400A387E70223800704B247F3A707800100C2
:102E34000100814701478146054685451305407ECB
:102E4400EFF0CFBA08084146814597E0FF1FE780BD
:102E5400E032B707C0A83ECAB78732003ECC0808A4
:102E640097E7FF1F9387E7A03EC8EF204028B250A2
:102E740045618280011122CC06CE930740031304DE
:102E8400C5FC63E7A7003704C0A81304C4FC2A9454
:102E940068006139EFF00FD4B307A4406376A4004F
:102EA400B707C0A8A297898F3747F6A69387F7FD7F
:102EB4001307F7C5637AF700324509446931F240D4
:102EC4002285624405618280228565353245A539B3
:102ED400373700408347574093F7070495C703A447
:102EE400818B0DE41165690597D0FF1FE780803061
:102EF4000545EFF0CFAAEFF0EFCD2AC4EFF08FCD68
:102F0400A247E30DF5FE65BF0100E9B70D4445BFD7
:102F1400411113078008F337078093F787083EC4ED
:102F240001000100B7170040930570052380B70422
:102F3400130680FA2380C7040100010083C6E7005A
:102F440093E686002387D70023800704A246F3A6CE
:102F540006800100010073370780137787083AC69B
:102F6400010001002380B7042380C704010001008D
:102F740003C7170313670702A388E7022380070424
:102F8400B247F3A7078001000100B7E700E0370765
:102F9400001023A0E710410182801388F5FF8146C9
:102FA40081473386F5400147931717003303F50033
:102FB4008907AA978358030003DE070063761E017E
:102FC4002310C3012390170105071377F70FE34D6F
:102FD400C7FC850693F6F60FB687E3C406FD0147E2
:102FE400814739A093161700AA9683D60600B69790
:102FF4000507E34907FFF91533D5B70242054181B7
:103004008280828041118D45056506C6EFF00FBEB2
:10301400B757004005471145A381E700EFF04FFD86
:10302400B2408546054693050002054541016FF00F
:10303400FF8441118146054693050002054506C6F5
:10304400EFF0DF83B71700409387C70A9843B24075
:103054008566558F98C3410182805D7186C6A2C47E
:10306400A6C22E84CAC04EDE52DC56DA2A8A5AD848
:10307400513F794597D0FF1FE78020788145096546
:10308400EFF0CFB689450145EFF0EF88EFE09FFF01
:10309400AA852A8917F501001305C592EFB0A1731B
:1030A400B71700400D472400238CE704A689EFF0EE
:1030B400EF8C4A952390A4001C188904E399F4FE2C
:1030C400D1454E85D93DAA89AA8517F50100130576
:1030D400E590EFB0417097F5FF1F83A56509228540
:1030E400EFD0B14E97F5FF1F83A5C508EFD0B17B94
:1030F400AA8497F5FF1F83A525082285EFD0F14CFC
:10310400A285EFD0914CAA852685EFD00154EFE03B
:10311400E1552A894E85AE84EFD0811E4A86A68663
:10312400EFC03125AA8AAE89228597F5FF1F83A5B2
:10313400E504EFD0914997F5FF1F83A56504EFD00F
:1031440091762A8B97F5FF1F83A5C5032285EFD0BF
:10315400D147A285EFD07147AA855A85EFD0E14EB9
:10316400EFE0C1504A86A686EFC0B1202A86AE861B
:103174005685CE85EFB0B16497F7FF1F938747FB61
:103184009043D443EFC0414AEFD001122300AA0078
:103194004D35B640264496440649F259625AD25AED
:1031A400425B054561618280411106C6EFE07FFA0A
:1031B400B71700403947238CE704EFE03FFC93073F
:1031C400A0413305F502FD77B2409387273B4101C7
:1031D40025853E954205418182801D71CAC897E5C7
:1031E40001009385E5702A89130600040A8586CEBA
:1031F400A2CCA6CACEC6D2C4EFE07FE797F5FF1FE4
:1032040083A585F84A85EFD071296347A0088A848D
:103214000144114A83A94400CA854E85EFD0713117
:103224006356050612049307040433842700032A13
:10323400C4FC032584FCD285EFD0F166AA8403255F
:1032440004FCCE85EFD03166AA852685EFD0617661
:103254002A84CE854A85EFD01165AA852285EFD0D0
:10326400D136D285EFD0613E97F5FF1F83A505F2D5
:10327400EFD0B135EFE0E1211375F50FF640664468
:10328400D6444649B649264A256182800504C104CC
:10329400E31244F90145DDB713054006C5B74111F2
:1032A4003165854506C6EFF04F9EB24005454101A4
:1032B400ADAC79714AD02A89054506D626D222D4E6
:1032C400AE844ECE52CC952481570547854605469B
:1032D4009305710013054004A303F1006524094517
:1032E40097D0FF1FE78060512947854619462C0077
:1032F400130540049D269947631CF50C83578100F0
:1033040017F4FF1F1304C4E313958700A1835D8D95
:1033140042054181EFD0C10597F7FF1F9387C7E1AD
:103324009043D443EFC0413010405440EFB0314992
:1033340097F7FF1F938747E19043D443EFC071038E
:10334400EFE0213D8347C1000347B100AA89A207EA
:10335400D98F13958700A1835D8D42054181EFD0FC
:10336400210197F7FF1F9387A7DE9043D443EFC053
:10337400A12B10405440EFB0914497F7FF1F93875F
:10338400A7DD9043D443EFC0C17EEFE0813817FA44
:10339400FF1F032AAADFD2852A84EFD031106347A6
:1033A400A002930500002285EFD0B11863540500F4
:1033B400130400002320390180C00545B250225473
:1033C40092540259F249624A456182805284DDB7BF
:1033D4000145EDB701112306A10093D7850023070A
:1033E400B10005476C0085460D461305500406CE12
:1033F400A306F100412AF24005618280411185450E
:10340400316506C6EFF06F88B240B565938505C196
:1034140005454101C1B7797122D4A307A1002E84C7
:103424000147854605469305F1001305500406D669
:10343400912A635705000145B250225445618280A8
:103444002947854609466C0813055004231E0100CC
:1034540029240347C1019307B008E30EF7FC8357FF
:10346400C101054513978700A183D98F2310F40068
:10347400E1B779714AD09305E1002A89014506D65E
:1034840022D426D24ECE52CC79370DE117E5010075
:1034940013050556EFB061360144B250228522541B
:1034A40092540259F249624A456182808354E10090
:1034B4002A84054593D7C4003315F500EFC0516441
:1034C40097F7FF1F9387C7C99043D443D204EFC033
:1034D400A1152A8A13D54401AE89EFC071622A86E8
:1034E400AE865285CE85EFC02114EFE0812293058C
:1034F4000000AA84EFD0F103E34005FA97F5FF1F1B
:1035040083A505C92685EFD06179E347A0F8232078
:1035140099002685EFE081152A86AE8617E501001D
:103524001305854EEFB0212B8DBF2385018C0547F4
:103534002384E18CA383018CB72506004111AA875B
:103544001167930600401166938505A8014506C6D8
:10355400EFF0CF90854513050040EFF02F8B8545A4
:1035640013050020EFF08F8A854513050010EFF056
:10357400EF89B240B7E700E03707004023A0E71027
:1035840041018280011126CA06CEB68422CC4AC8E3
:103594004EC69306000263E0C60C83C6A18C2A843F
:1035A4001389A18C795599E209EA0145F2406244F4
:1035B400D2444249B2490561828089462300D90038
:1035C4002384E18C2380018C1385819EA382C18C8A
:1035D4002383018CEFE0BFA9A384018C83C7918C62
:1035E4000604C18F0145A384F18CEFE0FFFD03C7FE
:1035F400718C85479389918C631BF704A383018C99
:103604003754004003C50900EFF02F82835704802C
:10361400918BEDFB854513050040EFE03FFF8545A9
:1036240013050020EFE09FFE854513050010EFE031
:10363400FFFD91C4894703470900E30EF7FE83C7E2
:10364400018CA5D703C5018C3305A04085B705457A
:10365400EFE07FF5F9BF7D5591BF9307000263E169
:10366400C710011152C406CE22CC26CA4AC84EC67F
:1036740056C25AC083C7A18C2A88138AA18C795553
:10368400CDEF3284014555CA854A23005A0123846B
:10369400D18C2380018C2383018C1389918C930713
:1036A400F6FF23005901BA84A382F18C83470900F1
:1036B4000608AE89B3E7070193F7F70F2300F90073
:1036C400EFE09FF083C7718C63935709A383018C48
:1036D400B75A004003450900EFE03FF583D70A805D
:1036E400918BEDFB854513050040EFE03FF28545E6
:1036F40013050020EFE09FF1854513050010EFE06E
:10370400FFF00149854A7D5B83470A00639C5701AA
:10371400054597D0FF1FE780400E0509E38664FF47
:10372400E34499FE83C7618C63E78702228693850D
:10373400819E4E85EFE0BF932285F2406244D244DD
:103744004249B249224A924A024B056182800545A8
:10375400EFE07FE57DB703C4618C1374F40FF9B710
:103764007D55828011CDB707000163FBF50093D727
:1037740085002300B500C181A300F5002301B50035
:103784008280328541115546210506C6EFE03F8E01
:10379400B24001454101828001458280B717004053
:1037A4009387C70C9843498F98C38280B71700400A
:1037B4009387870C9843498F98C38280B71700403A
:1037C4009387870C9843298F98C38280B71700404A
:1037D40083A7470C7D8D8280B717004003D7E70984
:1037E4009357E50093F707305D8D798D8280935769
:1037F400E50093F707305D8D42054181B71700401E
:10380400239FA70882808D47630AF50263E9A70016
:103814008547630AF5008947630DF500828099475F
:103824006303F502828017E501001305651F6FA08D
:10383400D17C17E501001305A51FD5BF17E50100CD
:1038440013050520EDB717E5010013052521C5B7BC
:103854001855011122CC26CA4AC84EC606CE854642
:1038640004415C4183298500032945022A84630EAF
:10387400D7008946630CD704854509CBF2406244DE
:10388400D2444249B249056182808945268582979E
:103894001C4C26858297814511E1854526858299B0
:1038A4001307F9FE8547E3EBE7FC6244F240D24498
:1038B400B249B397270137E700E042492320F710C4
:1038C4000546C145054505616FF0AF9281457DBF51
:1038D400411126C204415C4D22C44AC006C60329D4
:1038E40085002A84268582971DC11C5026858297CF
:1038F4001C4C26858297814511E1854526850299D0
:103904000545B24022449244024941018280014566
:10391400CDBF034706006309A7081C46A946B38721
:10392400F54063F3F6080CC62300A6000547631BA5
:10393400E5045C421307F018B387F5406367F700AA
:103944000345060105051375F50F2308A6004CC2AF
:10395400A30806005C42130730389D8D6374B704D6
:103964005CC6834706010547A308E6001145638B3F
:10397400E704094715456387E7040D471945639331
:10398400E70282808347160191EF834706010545CC
:10399400638AE702094709456386E7020D470D4537
:1039A4006382E702014582808547E31DF7FE834772
:1039B4001601CDD35C463385F540133545381345A0
:1039C40015001E058280B71700409387C70C9843E3
:1039D4003971856606DE52D422DC26DA4AD84ED600
:1039E40056D2558F98C32C0897E7FF1F83A7877A71
:1039F40048083ECA3ECCEFF0DF8B2A8A17E5010067
:103A040013054506EFA0715F9307000068083ECEDA
:103A1400EFF03FA61DC97245EFD0514597E7FF1F50
:103A2400938707749043D443EFB06159EFC0D10733
:103A3400AA852AC617E5FF1F1305455A2533B24543
:103A440017E5FF1F13050558313B17E50100130562
:103A54006502EFA0915AEFF02FF52A84EFD0912858
:103A640097E5FF1F83A54573EFC0B174AA89EFD012
:103A7400F13F2A86AE86937AF40F17E50100130509
:103A8400A5002180EFA03155420417E9FF1F130957
:103A9400A95441804E85A300590123018900EFF008
:103AA400CFF397E4FF1F9384A4512309A9004E8503
:103AB400A380540123818400EFF02FF22389A40012
:103AC40017E50100130505FEEFA03153CE8513055C
:103AD4003101A3090100EFF04FD809CD834531012D
:103AE40017E50100130585FD2307B9002387B400FA
:103AF400EFA0714E17E50100130545FDEFA0F14F4E
:103B0400630D0A06524A97E5FF1F83A5256852856F
:103B1400EFD0A12BEFD0F111E24913140501418438
:103B240097E5FF1F83A58566231489004E85EFD092
:103B3400C129EFD0111093170501C183A183137517
:103B4400F50F2306F9002386F400A305A9002394A6
:103B54008400A385A4004E85EFD05131AA895285F3
:103B64002E84EFD0B1302A86AE864E87A28717E521
:103B740001001305A5F6EFA0114617E50100130592
:103B8400A5F8EFA091471305000817E401000324EA
:103B9400E4FD0294133515002308A9001305000859
:103BA4000294B71700409387870C9843F2506254ED
:103BB4001335150085662388A400558F98C3D25405
:103BC4004259B259225A925A21618280797106D699
:103BD40097E7010083A787F913050008829797E503
:103BE400FF1F9385E53D133515002388A500554631
:103BF4000A85EFE0CFC78A8517E6FF1F1306463F05
:103C04001385418ABD3EB25017E6FF1F1306463E98
:103C1400F5451305603045616F508109011126CACD
:103C240097E4FF1F9384443B83D7040022CC06CE41
:103C340017E4FF1F1304C4382310F40083C72400BF
:103C440068002301F400EFF0DF820DC93245EFD0A4
:103C5400F12197E7FF1F9387A7509043D443EFB018
:103C64000136EFC06164AA8517E5FF1F130585358A
:103C7400D53CF2406244D2440561828083D744003B
:103C84002312F40083C764002303F400DDB7011199
:103C9400170500001305051606CE22CCEF10C0133D
:103CA4001384E18C8D472300A4001306F10085459D
:103CB40013058030A307F100EF40917F17E6FF1F43
:103CC40013060633F54513056030EF40717E930506
:103CD40000020D45EF20905C930500021145EF2092
:103CE400F05B03450400130600028545EF005024F1
:103CF400034504006244F2400146894505616F00B2
:103D040030230111A307A1001306F1008545130513
:103D1400503006CEEF40D179F2400561828093871E
:103D2400018D984309C78946630AD70082800547F5
:103D3400A14503C5E18C98C36F0090080D4798C353
:103D4400828039711306C00297E50100938585E0EE
:103D54000A8506DE22DCEFE08FB10A85953E11C1AB
:103D64007D3F17E40100130424DC1306C002A2857E
:103D74000A85EFE0CFAF0A85A13E3DC51C4C09651D
:103D840082972A84EF00B000EFD09102EFD0110E99
:103D940097E7FF1F9387473D9043D443EFB0D10883
:103DA400EFC08150AA85138681A0333580009536F3
:103DB40009C597E7FF1F238FA7201384E18C0345D0
:103DC4000400C145EF00B04E11C503450400C145D0
:103DD400EF00503F034504006254F250130640566E
:103DE400C14521616F00D014F25062542161828078
:103DF4001D7193970501A2CC86CEA6CACAC8C187F5
:103E04002E8463DF070003C5E18C552E11C1ED2C10
:103E14002165218DF6406644D64446492561828059
:103E240093F71500ADCF17E5FF1F1305E52CEF3011
:103E3400C11A85453165EFE04FE50545EFF0EFEE3A
:103E4400EFF0EFC5EFF08FDBEFF0AF9B8D4505652D
:103E5400EFE0AFE3B71700409387870C984385667C
:103E64001306C002558F98C397E50100938585CE4C
:103E74000810EFE0CF9F0810EFF09F9D1306C002DB
:103E840097E50100938545CA0810EFE04F9E08109E
:103E9400EFF01F9CEFF05F9013451400A5BF93F75C
:103EA4002500B5CB9384E18C83A7018D03C5040061
:103EB40089CB130600028945EF00900713452400BF
:103EC40091BF3166130606B88945EF007006EFF01E
:103ED4009FAF554697E5FF1F938505100A85EFE0D0
:103EE4000F9917E6FF1F1306A6108A851385418ACA
:103EF400EFF03F8917E6FF1F1306860FF5451305FC
:103F04006030EF40F15A0545ED3B03C5040013064C
:103F14000002914555B793F7450091C70145D53344
:103F240013454400C5BD93F785006388070A93844D
:103F3400018D9C400949638727050D476382E70883
:103F44000547639EE7021389E18C03450900A145F7
:103F540013060002EF00C07D034509009145EF0000
:103F6400103511C5034509009145EF00B02523968E
:103F7400018C6D31A1390545693389479CC01345CE
:103F8400840049BD1387C18C8357070003C5E18CA6
:103F94008507C207C1832310F70025476369F7002B
:103FA40013060002A145EF00A0780D31C9BF914569
:103FB400012D23A8018C97E7FF1F238D0700C1B7AC
:103FC40013060002A14503C5E18CEF006076FD3EB7
:103FD4002396018C23A024015DB713F50501E30B9F
:103FE40005E297E7010083A7A7B509658297AA842C
:103FF400792BEFD0E15BEFD0616797E7FF1F9387E1
:10400400A7169043D443EFB02162EFC0E129AA85FB
:10401400138681A033359000EFF0BF8F09C597E771
:10402400FF1F2389A7FAE53913450401E5B30111FC
:10403400054506CEEFE0FF891305800497C0FF1FF6
:10404400E780205385457D55EFE04FBA85457D5582
:10405400EFE0AFC3B71700409387870A98438D45B5
:10406400130500201367072098C3EFE02FB8EFE093
:10407400FFB4B7F5070081463000E105194597D034
:10408400FF1FE78060D21387418A81479946300039
:104094003E960346060085077D172303C700E39871
:1040A400D7FE03488100834791000347A10083465C
:1040B400B1000346C1008345D10017E50100130593
:1040C40025ACEFA0417117E501001305E5CBEFA086
:1040D400C172EFE0FFB7EFE01FC8EF40516FEFF0A0
:1040E4001FBB97D0FF1FE780C0BF23AC05FE1C4158
:1040F40091E7010001000CC18280BA8703A787FF02
:104104006DFF23ACB7FE8280411122C426C237C49E
:10411400004006C68324C420232604200F10000078
:1041240009E9232694201545B240224492444101D2
:1041340082800347E5FF9307F00F6306F700232609
:1041440094201145D5B797E0FF1FE780C0BC014517
:1041540023269420D1BF411126C24AC0B7C40040CF
:1041640006C622C403A9C42023A604200F100000FD
:1041740009E923A62421B240224492440249410180
:1041840082809565938505D0C98D2A842105C20551
:104194004205C181418197E0FF1FE780E0A801CD7E
:1041A400FD5723200500231285002303F50023A6D1
:1041B40024212105C9B723A6242101456DBF41113E
:1041C40026C2B7C7004006C622C483A4C72023A6BC
:1041D40007200F10000097070020938767989043EB
:1041E40001440147B28791E711E8A165EF00807DA2
:1041F40035A083C6E7FF639DA60221C0832684FF02
:10420400631FC40217070020232CD7947D57232C47
:1042140004FE230FE4FEF1DBA1655D262285B24096
:104224002244B7C7004023A69720924441018280CC
:1042340011E03E8783A787FF7DB73E84E5BF232C2B
:10424400D7FEE9B7411126C24AC0B7C4004006C62A
:1042540022C403A9C42023A604200F10000089E56A
:1042640023A62421154515A02A849707002083C777
:10427400778F2E856375F400894763EE870069356F
:10428400B7C7004023A627210D45B24022449244DB
:1042940002494101828083A785FF99E703C7E5FFAF
:1042A4009307F00F6308F7008535B7C7004023A6CE
:1042B40027214DBF238F85FE170500201305458A4E
:1042C4002D35A1652285ED2C014523A6242175BF3A
:1042D4009707002023A607888280970700209387EA
:1042E400278D9C4399E33E85828003D7270063167C
:1042F400B70003C70700E308A7FEDC47E5B7C9C159
:10430400797122D406D626D24AD04ECE01444147F2
:10431400B3D78540858BA5C3120531472295330554
:10432400E502970700209387A78C03A9070085441B
:10433400B3948400C204C180BE892A99032709006A
:1043440011C7032549002EC60297B24531473304ED
:10435400E40283A709003E941C4489E72320090052
:1043640023220900B2502254A58D02599254F249D5
:104374002E85456182800504E31CE4F88144DDB7A1
:104384002E85828041111397050122C406C626C2D8
:104394004AC041872E84635E0700153511C1AD33D1
:1043A400A1673D8C2285B2402244924402494101D6
:1043B4008280EDD9AA8701474146B356E440858AF5
:1043C4008DCE9207BA97B146B387D70297060020DD
:1043D4009386068203A906008544B394E400C204CC
:1043E400C1803E9983270900032549008297232031
:1043F400090023220900258C75B70507E31FC7FAB6
:104404008144D5BF411126C2B7C7004006C622C4A5
:1044140083A4C72023A607200F10000097F7FF1FCF
:10442400938747799C531384818099C782971C4052
:104434003E9523A4A18039A097F7FF1F9387C776E1
:104444009C43EDF71C40374703001307D73FB3875E
:10445400E70237A72600130737ECB240BA9723A424
:10446400F180B7C7004023A6972008402244924415
:1044740041018280797126D2B7C7004006D622D482
:104484004AD04ECE52CC56CA5AC85EC662C483A421
:10449400C72023A607200F10000005E123A69720BC
:1044A4000945B250225492540259F249624AD24AFE
:1044B400424BB24B224C4561828097F7FF1F938792
:1044C400A76E9C43BA8A368AB28B2E8BAA898297AE
:1044D40097F7FF1F9387C77198433E890144B146FC
:1044E400C147330CD40233068701104241EAC16547
:1044F400938505F0414597D0FF1FE780E07205E101
:1045040097F7FF1F9387076B9C5B81C78145114514
:104514008297B7C7004023A697202D4559B797F730
:10452400FF1F9387E768984331E797F7FF1F23A19D
:10453400A768230005008327090005473317870070
:1045440023260500232475012311E50023225501A8
:10455400E29723A0370123A2670123A45701630430
:104564000A0023008A00B7C7004023A6972001450C
:104574000DBF3E875C47F5FF48C765BF0504E312DE
:10458400F4F6B7C7004023A69720214519BF97F733
:10459400FF1F938767669C43411122C406C617F424
:1045A400FF1F1304245C81CB82975C483E9597F7E8
:1045B400FF1F23A3A75C4848B240224441018280E4
:1045C400B7C7004083A6C72023A607200F1000000A
:1045D40017F7FF1F034717596373E50217F6FF1F09
:1045E4001306C65C1317150008423A9503570500D5
:1045F400D98D2310B50023A6D7200145828023A698
:10460400D7200D458280B7C7004083A6C72023A6C4
:1046140007200F10000017F7FF1F0347B7546375F7
:10462400E50217F6FF1F1306665813171500084214
:1046340093C5F5FF3A9503570500F98D2310B5008E
:1046440023A6D7200145828023A6D7200D4582804A
:10465400011126CA37C7004006CE22CC4AC84EC62E
:1046640052C48324C720232607200F1000001307F9
:1046740005FF1377F70FFD4763E6E70AB146B30674
:10468400D50297F7FF1F9387A756984336971C4385
:10469400D1CB135A450005443D893315A4001314A6
:1046A400050141802E895285A285EFF01FC3AA8996
:1046B40029CDA2855285813F97F7FF1F9387C74E67
:1046C4009C43829797F7FF1F83D7C75333872703EA
:1046D4002A84814613060064B3B7270313050732FF
:1046E400B335E500BE95EFA0E118B307850097F652
:1046F400FF1F9386A6503E87D44263E4A70063E479
:10470400D7003387D74023A4E900B7C7004023A6C6
:1047140097200145F2406244D2444249B249224AB8
:1047240005618280B7C7004023A697200945DDB7FD
:10473400797126D24ECEB7C4004006D622D44AD0D0
:1047440052CC56CA5AC85EC683A9C42023A60420E4
:104754000F10000097F7FF1F83C7D740637AF50057
:1047640097F7FF1F9387474483AB070063970B00BA
:10477400B7C7004023A63721A9A017FBFF1F130BBF
:10478400EB47832A4B00B74736FE938707C82E8A28
:1047940097F5FF1F83D50547BE9AB387C5022A84C0
:1047A40032898146B3B5C50213850732B337F500A4
:1047B40013060064BE95EFA0E10B63F0AA0223A6E2
:1047C40034210145B250225492540259F249624AAA
:1047D400D24A424BB24B45618280829B97F5FF1FC0
:1047E40083D54542B3872503AA8413060064814612
:1047F400B3B5250313850732B337F500BE95EFA093
:104804006107B3079500BE8403274B0063E4A70048
:1048140063E4E700B384E740D2852285EFF0FFAB81
:1048240001C904C5B7C7004023A63721054559BFB0
:10483400936504F0C205C181414597D0FF1FE7800D
:10484400A03E19E997F7FF1F9387C7369C5B8DD36A
:10485400A2851145829729BF97F7FF1F9387473594
:104864009C439DE397F7FF1F23A4A7348547232682
:10487400050004C52311450123008500A300F500AC
:104884002322050045B7BA87D84775FFC8C7F9BFC3
:1048940079714ECEB7C7004006D622D426D24AD06C
:1048A40052CC56CA5AC85EC662C466C26AC083A9DC
:1048B400C72023A607200F10000035C141443689C4
:1048C400B28A2E8AAA84B14C17FBFF1F130B4B32FA
:1048D400054D130C0003B30B940303270B005E97E1
:1048E4001C43B9EF9375F400B315BD001355444050
:1048F400C2055686C1811375F50F1D3D31C183274D
:104904000B00DE9784C323A247016304090023003C
:104914008900B7C7004023A63721014521A023A65B
:1049240037210945B250225492540259F249624A3D
:10493400D24A424BB24B224C924C024D456182808A
:104944000504E31A84F9B7C7004023A6372121459B
:10495400D1BF011122CC26CA4AC84EC6B7C70040EF
:1049640006CE03A9C7202A84AE89B28423A60720D1
:104974000F100000753B2285CE85EFF01F962A8428
:1049840005C597F5FF1F83D5E527B3879502130661
:1049940000648146B3B5950213850732B337F50039
:1049A400BE95EF90316D48C013351400F240624457
:1049B400B7C7004023A62721D2444249B2490E0575
:1049C40005618280011122CC4AC84EC6B7C7004097
:1049D40006CE26CA83A9C7202A892E8423A60720A7
:1049E4000F100000EFF07F8FAA8419C12311050076
:1049F400A2854A85EFF03FC197F7FF1F83C787164B
:104A0400639B270197F7FF1F83D7C7195D8C97F71F
:104A1400FF1F23998718B7C7004023A637210145F4
:104A240091E01945F2406244D2444249B2490561D9
:104A34008280011126CA4AC8B7C4004006CE22CCDF
:104A44004EC603A9C42023A604200F100000930718
:104A5400F00263E8A704B1473304F50297F9FF1F96
:104A64009389091983A70900A2979C439DCB937747
:104A7400F5008545B395F500C205C18111819937CB
:104A840083A709000145A29723A0070023A20700DA
:104A940023A62421F2406244D2444249B24905612A
:104AA4008280B7C7004023A627210945E5B74111F5
:104AB40026C206C622C4B7C7004083A4C72023A6C3
:104AC40007200F100000EFF05F8119E90145B240A3
:104AD4002244B7C7004023A6972092444101828014
:104AE40097F7FF1F9387470C9C430045829797F7DE
:104AF400FF1F9387A7106368A402D843B74636FE06
:104B0400938606C83305A4403697E371E5FC130782
:104B14000064B335E50203D6870081463305E50218
:104B2400EF9051556DB7D8433A94C1BF0111680055
:104B340006CE22CC26CAEFC02079FD57630BF50AB6
:104B4400B247DDC397F7FF1F9387470B97F4FF1F07
:104B5400938444019448D8433E846387E60297F7DC
:104B6400FF1F938767049C438297B247984863F377
:104B7400E7003E87B307A7003E85544063E4E7009F
:104B840063E4D7003385D74017F4FF1F1304842050
:104B94001C4C81CF97F7FF1F9387C7269443370791
:104BA400CDFF7D179C46F98F9CC611E597F7FF1F33
:104BB4009387C704C84397F7FF1F9387A7FFDC5366
:104BC400829719E51C4C8DC3EFE08075EFD0B04A95
:104BD4001C4C99CB97F7FF1F9387C7229843B706BE
:104BE40033001C47D58F1CC7F2406244D244056190
:104BF400828097F4FF1F9384E4F617F4FF1F1304D5
:104C0400E4FF9448584097F7FF1F9387E7F99C43C4
:104C14006393E60282975440B74736FE938707C8EA
:104C2400B6973387A7003A856364F700E36ED7F439
:104C34003305D74091BF829794485840B387A60064
:104C44003E8563E4D700E3E1E7F43385E7402DBF15
:104C5400411106C697F7FF1F23A0A7FA0295B24099
:104C640097F7FF1F23ACA7F00145410182809147CC
:104C740063E9B7008A0597F7FF1F938767F1BE952D
:104C840088C1828097F7FF1F23A6A7F611C5854721
:104C940017F7FF1F2309F7F0828041115146814520
:104CA40017F5FF1F1305C5EE06C697F7FF1F23A1CF
:104CB40007F097F7FF1F23A107F497F7FF1F23A51A
:104CC40007EE97F7FF1F238007EE97F7FF1F23A335
:104CD40007F297C0FF1FE780604A130680028145F0
:104CE40017F5FF1F130505E897C0FF1FE78000496C
:104CF400EF40A13797F7FF1F83C717ED13D52700A0
:104D04008D8B3E958D473305F50285453905137521
:104D1400F50F97F7FF1F2388A7E499473305F5029A
:104D24001305052497D0FF1FE78000F017F7FF1F36
:104D34002320A7EC59CD994717F6FF1F0346A6E297
:104D44003306F60281451306062497C0FF1FE78049
:104D5400E04297F7FF1F9387A7E99C4393870724B3
:104D640017F7FF1F2324F7E217F7FF1F0347A7DFF7
:104D74000A07BA9717F7FF1F232AF7E2EFF04FD578
:104D8400B12997F7FF1F938767E0944397F7FF1FB5
:104D940083C757DD13972700369717F6FFFF1306CF
:104DA400465610C3138717001377F70F0A07369771
:104DB40017F6FFFF1306465D10C3138737008907F4
:104DC40093F7F70F8A0797F5FF1FA38DE5D8B697DA
:104DD40090C3B2404101828097F7FF1F83C797D8E1
:104DE40017F7FF1F034727D863F3E70217F7FF1FDF
:104DF4001307C7D918439386170017F6FF1FA30399
:104E0400D6D693962700369708C33E8582809307AB
:104E1400F00FE5BF1C416382071441777D8FB7060D
:104E240000208947631CD712035745006308071203
:104E3400411122C419462A849305F00F610506C660
:104E440097C0FF1FE780E04505478D476302E510E3
:104E54001C4491C75858994765CF185C75CB130605
:104E6400C003814517F5FF1F1305C5D497C0FF1F65
:104E7400E780C0301306C003A28517F5FF1F130592
:104E840065D397C0FF1FE780C02817F7FF1F03579C
:104E940027D397F7FF1F9387E7D119E7130700106C
:104EA40097F6FF1F239EE6D017F7FF1F034767D12E
:104EB40011E7054797F6FF1F2385E6D017F7FF1F75
:104EC400035747D011E76D4797F6FF1F239CE6CEA3
:104ED40017F7FF1F0347F7CE11E7154797F6FF1F94
:104EE400A381E6CE17F7FF1F0347E7CD11E7054778
:104EF40097F6FF1F2389E6CC17F7FF1F0347B7CCAC
:104F040019E703C7F70097F6FF1FA38EE6CA17F742
:104F1400FF1F034767CB11E7554797F6FF1F23850C
:104F2400E6CA0347640119E71307C00397F6FF1F96
:104F3400238DE6C89C5791C7829797F7FF1F239745
:104F4400A7C2FD5717F7FF1FA300F7F2B933814734
:104F5400B24022443E854101828089473E85828059
:104F640001114EC697F9FF1F938949C983A7090008
:104F740006CE22CC26CA4AC852C4829713090064BA
:104F8400B335250303DA89008146528633052503A8
:104F9400EF90510E97F7FF1F9387C7BC804FAA84E9
:104FA40001456306940233858440636E940003A52F
:104FB400490052868146B335A9023305A902EF9010
:104FC400710B018D269597F7FF1F23A997BAF2401D
:104FD4006244D2444249B249224A0561828097F729
:104FE400FF1F83D747C251471D45637CF7027947AA
:104FF40019456378F7021307200315456373F70215
:105004001307B0041145637EF700130740060D45EE
:105014006379F7001307600909456374F70013B552
:10502400B70F8280011122CC06CE2A842EC6EFF05F
:105034006FBDB245F240818D33A5A502229562442D
:105044001375F50F05618280011122CC06CE2A84E6
:105054002EC6EFF02FBBB245F240818D33A5A502D9
:10506400229562444205418105618280011122CC6E
:1050740006CE2A842EC6EFF0EFB8B245F240818DF9
:1050840033B5A502229562440561828097F7FF1F1C
:10509400938747B2985739CB411122C426C206C61A
:1050A400BE84029717F7FF1F035747AC2A8415CB1A
:1050B400BA876373A700AA87C207C183BA866373DA
:1050C400E400A286C206C182958F5147635BF70054
:1050D400DC5491C38297EFE0A00D97F7FF1F23974D
:1050E40087A8B2402244924441018280828097F78B
:1050F400FF1F83C767B199C7054582800545F24004
:105104000561828097F7FF1F9387C7AADC570111B7
:1051140006CEAA8581C72AC68297B245B5CD9C41E1
:10512400F1DFDC41E1DF83D78500E9DB83D7A5002C
:10513400F1D7414617F5FF1F130545AC97C0FF1F74
:10514400E78020FD97F7FF1F938747AB9C4317F732
:10515400FF1F232BF7A497F7FF1F83C717A78DE71C
:105164009307805717F5FF1F0355C5A93305F502AB
:1051740037460F001306062481468145EF90816F60
:1051840097F7FF1FA383A7A417050000130585DD68
:10519400EFF01FAC0145A5B797F7FF1F23A2079EA9
:1051A40097C7FF1F9387C74D17F7FF1F2328F7A43F
:1051B4007D5797F7FF1F23A5E7A4B787320093878E
:1051C40027A197F6FF1F23AFF6A297F7FF1F238DA2
:1051D40007A2B7C7004023A4E726ADB7011122CC2C
:1051E40017F4FF1F1304049D084406CE26CA4AC8B8
:1051F40001E90545F2406244D24442490561828096
:105204005C58E5DB185C75D77000854582971844B7
:10521400B247E300F7FE9305E00417F5FF1F0355BB
:10522400259A97D0FF1FE78020A017F7FF1F232B95
:10523400A79461D117F6FF1F035686989305F00FC4
:1052440097C0FF1FE78080F3814417F9FF1F1309FC
:10525400699197F7FF1F83C7C7960326090263C1A5
:10526400F402328597D0FF1FE780E0AA014597F743
:10527400FF1F23A9079097F7FF1F23A707909DBF40
:1052840097F5FF1F83D5C593B38795020844185C2F
:10529400898185043E9508C2029765BF011156C2F3
:1052A40097FAFF1F938A0A9183A78A0022CC4AC8DF
:1052B4004EC606CE26CA52C45AC0AA892E84328942
:1052C4006386072203A74A03630907141307F01F21
:1052D4006367A71497F4FF1F9384C48803AA040286
:1052E40063170A0A9565938515E017F5FF1F0355A3
:1052F400258D97D0FF1FE780209397F7FF1F23A3E7
:10530400A7882A86630B051083A74A0303A58A008E
:1053140097F5FF1F83D5C58A8981829783A78A0061
:1053240003AA040217F7FF1F2320F7868947639C0B
:10533400F908C1476313F40E97F5FF1F83D5458819
:10534400938505FC9147B3C5F5028A05D29503C739
:1053540025009307A005631EF70A83D70500639A07
:10536400370B4A852286910597C0FF1FE78060DAD4
:105374009C505285639347150145F2406244D244E0
:105384004249B249224A924A024B05618280D8506E
:10539400E38EE7F89565938525E017F5FF1F035520
:1053A400258297D0FF1FE78020882A8A3DC52A8658
:1053B40083A74A0303A58A0097F5FF1F83D5458079
:1053C40089818297A5B78D47639DF900C14763160C
:1053D400F40497E5FF1F83D5A57E938545FDF199D8
:1053E400B5B79147639AF9006319340397E5FF1F32
:1053F40083D5057DA115E5B793070010639FF900D8
:10540400A14763EC870097E5FF1F83D5657BC11532
:10541400F9B79C5052856396470D2945B9BF1D6A5B
:10542400568B6371450B130A05E01947334AEA02A8
:1054340017E7FF1F0357C77897EAFF1F938A8A72FB
:10544400330AEA023E9A83A74A026395470183A47A
:105454000A029DE49305E00417E5FF1F0355457612
:1054640097C0FF1FE780407CAA8445D983274B035C
:1054740097E5FF1F83D5C5742A8689815285829753
:1054840091451307A005898193972500A69783C6A4
:1054940027006393E60483D60700639C36038505DF
:1054A4008A052286A6954A8597C0FF1FE78060C6B5
:1054B40083A70A02E38297EC268597D0FF1FE78033
:1054C40080855DBD21677917E369A7F4330A4541F7
:1054D40085B783C5370045BF83A70A02E38F97F2D8
:1054E400268597D0FF1FE780008305BF97E7FF1F3E
:1054F400938747678C5395D191479306A005898379
:10550400139727002E9703462700E318D6F0035677
:105514000700631C360185078A072286BE954A85E3
:1055240097C0FF1FE780E0BE81BD83473700C1BF3E
:1055340097E7FF1F93870768984739C79C5FA9C7F8
:1055440005476313E504411122C417E4FF1F130444
:105554006461105006C60DC6485097E5FF1F83D5F9
:10556400256689818297085097C0FF1FE780A07A3B
:1055740097E7FF1F23A8076097E7FF1F23A607608D
:10558400B2402244410182808280011117E7FF1F4B
:10559400130747624EC68329870022CC26CA4AC80D
:1055A40006CE52C456C2AA842E843289638B092043
:1055B4001C5FBA8A99EB2945F2406244D2444249BD
:1055C400B249224A924A056182805C5BEDD7930717
:1055D400F01F63EAA70E97E9FF1F9389A95883A7D1
:1055E4000902B1CB03A58A0083A749026395A706E4
:1055F40089476393F408C147E31FF4FA17E5FF1FD3
:105604000355055C9147130505FC3345F5029317D3
:10561400250003A509022286CA853E959307A005A5
:105624002301F50023109500110597C0FF1FE780A3
:1056340040AE014551B79305E00417E5FF1F03553C
:10564400255897C0FF1FE780205E97E7FF1F23AB15
:10565400A75249F98DB783A74A0303A6090297E520
:10566400FF1F83D5E5558981829783A78A0017E7B1
:10567400FF1F232BF750ADBF8D47639EF400C14736
:10568400E31BF4F217E5FF1F03558553130545FD8E
:105694009377C5FFBDBF9147639AF400E31D94F06F
:1056A40017E5FF1F0355C5512115DDB793070010FA
:1056B400E393F4F0A147E3E087F017E5FF1F0355F8
:1056C40025504115F1B79D676379F506930705E009
:1056D4001947B3C7E70217E7FF1F0357674E17EAD7
:1056E400FF1F130A2A48B387E702BE9983270A02D9
:1056F400A1CF83274A026399370703250A029146FB
:105704001308A0059305F00F93D7260013972700DD
:105714002A9703462700631F06078358070003469A
:10572400370063959806B306D64063CF8604850791
:105734008A072286CA853E95CDBD21677917E36C19
:10574400A7E6B307F54041BF9305E00417E5FF1F43
:105754000355054797C0FF1FE780004D97E7FF1FDC
:1057640023A2A74259F581BD83A74A0303260A024F
:1057740097E5FF1F83D5C54489814E85829797E7B6
:10578400FF1F23A3374195BF2310B70093160601CB
:10579400C1829DBFB385860017E6FF1F03564642AC
:1057A4009105130606FCE3F8C5E013063400719A6C
:1057B4001106B2962301070123109700A301D70015
:1057C400BDB797E7FF1F9387E7399453BE89A9C2F2
:1057D40003A5090291461308A0059305F00F93D77A
:1057E4002600139727002A97034627006318060507
:1057F400835807000346370063989800B306D640E1
:10580400E3D786F22310B70093160601C182C1BF05
:105814008357C70017E5FF1F0345A53A9305E00426
:105824003305F5024205418197C0FF1FE780C03F61
:1058340097E7FF1F23A8A73441FDB5BB17E6FF1F59
:105844000356063897E5FF1F83C5A537B385C50200
:10585400338686001106E3E0C5D681BF0145828008
:10586400011106CE2EC6EF70C06C01C9B245F240DC
:105874000355250005616FB0B002F240494505614A
:105884008280A38E018E238E018E23A2018E23A4F7
:10589400018E23A6018E23A8018E23A0018E23AEA0
:1058A400018C97E7FF1F938767389306403823914D
:1058B400D702F1761307400B938606B82391E700CD
:1058C4002392D70211679D46130600059305000A2B
:1058D4001305007D2392E7002393D70241478546B1
:1058E400130810F82395E7002396E7002399E700AF
:1058F400239AE700239BE700239CE7002394E70215
:10590400239007002393B7002394B7002397C7007D
:105914002398C700239DA700239E0700239F070009
:10592400239007022395D7022396070323970702A0
:105934009308F007239807022392E7042393E704CC
:10594400239FE7042390E7062391E7062392E706C3
:10595400239917031307C01C239AD702239BD7024A
:10596400239C0702239D0702239E0702239F07020D
:10597400239007042391D704239407042395070451
:105984002396D7042397C7042398C7042399A7040D
:10599400239A0704239B0704239C0704239DC7041D
:1059A400239EC7042393A70623940706239507067B
:1059B400239607062397B7062398B7062399070665
:1059C400239AE7065147239DE7067D57239B070645
:1059D400239C0706239ED706239F070623900709C7
:1059E4002391E7088280011126CAAA84214522CC8A
:1059F40006CE2E8432C636C43AC2EFE0CFF51DC9B6
:105A0400A24612473246930700FD2300F50099474A
:105A1400A30095002301F5002303D500A303E500AB
:105A24002312C500AA8522856244F240D24405614E
:105A34006FE05F81F2406244D2440561828023A218
:105A4400A18E828023A4A18E828023A6A18E82802F
:105A540023A8A18E8280011122CC4AC806CE26CA70
:105A64002A890144B30489006368B400F2406244A3
:105A7400D2444249056182802EC6EFE0BF98931755
:105A84000501C183A183B2452380F4009307140068
:105A940093F7F70F850463F9B700CA9709042380C5
:105AA400A7001374F40F7DBF3E847DBFC16717E563
:105AB400FF1F03550516FD176304F502411117E690
:105AC400FF1F0346662A9385418F06C6EF70602444
:105AD400B240FD5717E7FF1F231DF71241018280D3
